:100000000C94E2000C944F020C94FF000C94FF003F
:100010000C94FF000C94FF000C94FF000C94FF0064
:100020000C94FF000C94FF000C94FF000C94FF0054
:100030000C94FF000C94FF000C94FF000C94FF0044
:100040000C94FF000C94FF000C94FF000C94FF0034
:100050000C94FF000C94FF000C94FF000C94FF0024
:100060000C94FF000C94FF00040309040A03310000
:1000700030003000300005010904A1010901A10090
:10008000850109300931150026FF007508950281A8
:100090000205091901290815002501750195088136
:1000A00002C0C005010904A1010901A100850109DF
:1000B000300931150026FF007508950281020509F7
:1000C0001901290815002501750195088102C0C094
:1000D00005010904A1010901A100850209300931C6
:1000E000150026FF007508950281020509190129EE
:1000F0000815002501750195088102C0C005010998
:1001000004A1010901A1008501093009311500266A
:10011000FF007508950281020509190129081500DB
:100120002501750195088102C0C005010904A101DE
:100130000901A100850209300931150026FF00756B
:100140000895028102050919012908150025017584
:100150000195088102C0C005010904A1010901A19E
:1001600000850309300931150026FF007508950246
:100170008102050919012908150025017501950855
:100180008102C0C005010904A1010901A100850483
:1001900009300931150026FF007508950281020516
:1001A000091901290815002501750195088102C06A
:1001B000C012010101000000089B28020003010099
:1001C0000203010011241FBECFEFD4E0DEBFCDBF7C
:1001D00011E0A0E0B1E0ECE0FEE002C005900D927D
:1001E000A035B107D9F711E0A0E5B1E001C01D923B
:1001F000AF3AB107E1F70E94D7030C9404070C94BF
:100200000000E9E6F0E0808182608083E89A8BE478
:10021000809385018AE58093840108951F93CF938D
:10022000DF9390919501935097FDA1C02091920189
:10023000809191018D3209F098C0983009F095C0F5
:10024000CCE0D0E0C21BD109C756DE4F83EC8093CF
:1002500079018AE5809300011092500188818076AF
:1002600029F0CE010E94B703282F76C09A81109200
:1002700082018981882321F41092830122E066C0E3
:10028000853019F49093960160C0863009F049C01A
:100290008B818130D9F1823031F4CE010E94890303
:1002A000282F80E03BC0833021F58A81882349F4E0
:1002B00088E690E0909394018093930180E424E099
:1002C0002DC0813049F1823049F482E091E0909371
:1002D00094018093930180E02CE120C08330E1F40D
:1002E0008CE690E0909394018093930180E42CE05D
:1002F00015C0813249F483E691E090939401809394
:10030000930180E429E00AC0823231F4CE010E94D8
:100310008903282F80E402C080E420E0809350010C
:100320001BC0883021F421E088E991E011C08930B8
:1003300019F49093980109C08A3011F421E006C0A5
:100340008B3019F48BE48093850120E082E891E002
:1003500090939401809393018F81882321F48E815F
:10036000821708F4282F20930101109295018091A3
:10037000000184FF4AC0809101018F3F09F445C00C
:10038000182F893008F018E0811B809301018091BB
:10039000790198E8892780937901112341F120910F
:1003A0009301309194018091500186FF0DC0AAE71E
:1003B000B1E080E090E0F901E80FF91FE491ED93DE
:1003C00001961817C1F708C0912FD901EAE7F1E0AB
:1003D0008D9181939150E1F71150812F90E01F5F33
:1003E0000196820F931F90939401809393018AE763
:1003F00091E0612F0E944B02612F6C5F6C3019F00D
:100400008FEF809301016093000194E189B18570C1
:1004100031F49150D9F71092960110929001DF912A
:10042000CF911F9108951F93DC01162F80918401B5
:1004300084FF07C08091850198E889278093850112
:1004400003C08AE580938401912FE6E8F1E08D9165
:10045000819391501916DCF386E891E0612F0E9498
:100460004B021C5F109384011F910895A82FB92F90
:1004700080E090E041E050EA609530E009C02D91C5
:1004800082279795879510F084279527305EC8F3CB
:100490006F5FA8F30895EADF8D939D930895CF933E
:1004A000CFB7CF93C395489BE9F7489B09C0489BBA
:1004B00007C0489B05C0489B03C0489B01C0A3C020
:1004C000DF93C0919201DD27C756DE4F489B02C0E3
:1004D000DF91EBCF2F930F931F9309B12FEF00FB09
:1004E00020F94F933F9319B14FEF012700FB21F9FA
:1004F0003BE031C04E7F012F19B1216028C0102F81
:100500004D7F2260000009B129C04B7F2460012F7C
:10051000000019B12BC019B1477F28602AC04F7E57
:1005200009B120612CC04F7D19B120622FC04F7BD3
:1005300009B1206432C0422709B149934FEF00004E
:10054000102710FB20F919B11570C9F1297F91F21C
:10055000012700FB21F909B1237F89F2315058F1BD
:10056000102710FB22F919B1277E79F2012700FB31
:1005700023F92F7C81F209B1102710FB24F92F7980
:1005800071F200C019B1012700FB25F92F7359F250
:1005900000C009B1102710FB26F9223040F200C03C
:1005A00019B1012700FB27F9243028F64F7720687E
:1005B00019B10000F9CF11E01CBB002719C03B5056
:1005C0003195C31BD04011E01CBB0881033CF9F0FE
:1005D0000B34E9F0209190011981110F1213EDCF26
:1005E0004A81441F093641F10D3211F0013E29F7CD
:1005F000009397013F914F911F910F912F91DF91A0
:10060000CCB3C0FD4FCFCF91CFBFCF9118952091E4
:100610009701222379F310919501112369F5343064
:100620006AF13093950120939101109192013BE082
:10063000311B3093920122C0009195010130E4F406
:100640000AE54F7049F43091000134FD19C0009360
:100650000001C9E7D1E018C03091840134FD10C019
:1006600000938401C5E8D1E00FC02795A8F451504C
:10067000A9F4220F0000F9CF4AE503C042ED01C002
:10068000432FC4E1D0E032E01AB11560589A1AB98C
:100690000BB120E415E05F93012756E00BB92795D5
:1006A00020F4515021F4220FF9CF012756E0000029
:1006B0003B5A0BB9D0F2279528F4515029F4220F58
:1006C0000000F9CF012756E027950BB920F45150CF
:1006D00021F4220FF9CF012756E0299133230BB9DA
:1006E00021F60A7F10919601110FC651D0400BB927
:1006F00011F01093900111E01CBB01601AB11A7F38
:10070000402F4A7F5F9100C000C00BB91AB94BB9A6
:1007100071CFFC018081807641F58181863029F599
:1007200083818230D1F0823269F08130F1F480919E
:10073000550190915601909394018093930180917B
:100740005701089580915201909153019093940123
:10075000809393018091540108958CE191E09093EE
:1007600094018093930182E2089580E00895DC0172
:100770002BE531E030939401209393018C918076A6
:10078000803299F411968C911197813071F4109206
:100790005801E0915901F0915A010784F089E02D48
:1007A000C90112966C910995089580E00895DF9231
:1007B000EF92FF920F931F93CF93DF9381E084B961
:1007C0008EEF85B917B88FEF88B988EF8BB985E0C0
:1007D0008AB982E08093B00087E08093B10084EC16
:1007E0008093B30080E395E70197F1F783B190E040
:1007F0008670907095958795823011F40E94B604AA
:100800000E940F06FC0190935A01809359010184C4
:10081000F285E02D0995E0915901F0915A0183810B
:10082000948190935301809352018181809354016C
:1008300087819085009731F0909356018093550100
:10084000858108C081EB91E090935601809355011A
:100850000E94F406809357018091540180933501E2
:100860008BB18A7F8BB98AB185608AB988EC9FEA9F
:100870000197F1F78AB18A7F8AB90E940101E0915C
:100880005901F0915A010384F485E02D099578947B
:1008900092E0D92E81E0E82EF12CA8950E940E015D
:1008A000B99BFBCFD7BAE0915901F0915A0103846B
:1008B000F485E02D099510E0C0E0D0E012C0058479
:1008C000F685E02D9E012F5F822F0995882341F048
:1008D000C7010C2E02C0880F991F0A94E2F7182B4B
:1008E0002196E0915901F0915A018081992787FD65
:1008F0009095C817D9071CF3112379F2C0E0D0E016
:10090000012F112707FD109524C0C8010C2E02C02D
:10091000959587950A94E2F780FF1AC0809184012B
:1009200084FF16C0CE018F5F682F0784F089E02D09
:100930008BE591E00995682F8BE591E00E94130209
:1009400003C00E940E01A8958091840184FFF9CF15
:100950002196E0915901F0915A018081992787FDF4
:100960009095C817D9070CF098CFCFCF10924F01B0
:10097000089580916701882309F44DC0449A80E36B
:100980008A95F1F7449860E070E020E030E098E16B
:10099000892F8A95F1F74598660F770F339B616031
:1009A000329B7160892F8A95F1F7459A2F5F3F4FEF
:1009B0002830310569F740E050E020E030E098E170
:1009C000892F8A95F1F74598440F550F339B416065
:1009D000329B5160892F8A95F1F7459A2F5F3F4FDF
:1009E0002830310569F780E090E038E1232F2A951F
:1009F000F1F74598232F2A95F1F7459A019688300B
:100A00009105A1F76093690170936A0140936B01AE
:100A100050936C010895449A80E38A95F1F74498C5
:100A200020E030E090E040E050E060E078E1872FA7
:100A30008A95F1F74598990F440F550F660F339B30
:100A40009160329B4160319B5160309B6160872F88
:100A50008A95F1F7459A2F5F3F4F2830310539F7D6
:100A60009093690140936B0150936D0160936F0106
:100A700020E030E078E1872F8A95F1F74598969548
:100A8000469556956695339B9068329B4068319B9E
:100A90005068309B6068872F8A95F1F7459A2F5FE1
:100AA0003F4F2830310539F780914F01882321F1DC
:100AB000809168019F3F11F4816001C08E7F809317
:100AC0006801809168014F3F11F4826001C08D7F01
:100AD00080936801809168015F3F11F4846001C0D8
:100AE0008B7F80936801809168016F3F11F488606B
:100AF00001C0877F809368018091680180FD90E04C
:100B000090936A0181FD40E040936C0182FD50E0CA
:100B100050936E0183FD60E06093700108951F9310
:100B20001FB7F8943C9A3D9A87B1807F87B988B106
:100B30008F6088B9459A4498109268010E94B90460
:100B400080914F01882321F580916A018F3F29F41C
:100B50008091680181608093680180916C018F3F72
:100B600029F48091680182608093680180916E0110
:100B70008F3F29F48091680184608093680180919F
:100B800070018F3F29F4809168018860809368012B
:100B9000449A80E38A95F1F7449880E090E030E051
:100BA00040E058E1252F2A95F1F74598339905C083
:100BB0008331910519F441E001C03F5F252F2A954B
:100BC000F1F7459A01968831910561F7442329F0A0
:100BD000373119F481E080936701809167018823A0
:100BE00061F481E080933E018DE290E090934001BA
:100BF00080933F0186E790E00BC081E080933E0147
:100C000084EB90E09093400180933F018DEF90E062
:100C100090934201809341011FBF1F9108958EE37D
:100C200091E008950F931F93CF93DF93EC0165300C
:100C300010F080E0B2C080916701E62FFF27E7FD4A
:100C4000F095882359F1DF0111972097F9F0688317
:100C5000FD01E759FE4F808180FD02C090E801C090
:100C60009FEF81FD90E09983FD01E759FE4F808160
:100C700082FD02C090E801C09FEF83FD90E09A835F
:100C8000FD01E759FE4F8081807F8B83FD01E7598D
:100C9000FE4F8081AF58BE4F8C937EC08F010150B4
:100CA0001040209709F46CC068839801220F331F0D
:100CB000F901E759FE4F808180FD02C090E801C034
:100CC0009FEF81FD90E09983F901E759FE4F808104
:100CD00082FD02C090E801C09FEF83FD90E09A83FF
:100CE0008091680190E0002E02C0959587950A9446
:100CF000E2F7D901A759BE4F80FF04C08C91807FD5
:100D00008B833EC0EC9111966C9170E04E2F50E0B9
:100D10009A0120743070A4E035952795AA95E1F7E3
:100D2000CA0180729070880F991F282BEE1FEE2742
:100D3000EE1F2E2B40715070E3E0440F551FEA95D3
:100D4000E1F7242BCB0181709070880F991F282B1D
:100D5000CB0182709070880F991F880F991F282BE4
:100D6000CB0184709070880F991F880F991F282BD2
:100D700068707070660F771F660F771F262B2B83A6
:100D8000F801EE0FFF1FDF01A759BE4F8D919C9117
:100D9000EF58FE4F9183808384E0DF91CF911F91C4
:100DA0000F910895815090916701A82FB0E0992389
:100DB00061F020E0FD01EF58FE4FA759BE4F9C9116
:100DC0008081981779F021E00DC0BD01660F771F73
:100DD000CB0187599E4F6F587E4F42E050E00E94F2
:100DE000F706282F822F089582E190E00895FB01F5
:100DF000DC0104C08D910190801921F441505040D4
:0C0E0000C8F7881B990B0895F894FFCFE9
:100E0C005AFF1A0353007400680065006600610005
:100E1C006E00650069007200610073000902220017
:100E2C000101000023090400000103000000092156
:100E3C00010100012200000705810308000A012DB1
:100E4C00000000000000008F05B904D20612060154
:00000001FF
