:10000000C0C029C2D9C0D8C0D7C0D6C0D5C0D4C0FE
:10001000D3C0D2C0D1C0D0C0CFC0CEC0CDC0CCC064
:10002000CBC0CAC0C9C0040309040A0331003000B0
:100030003000300005010904A1010901A10085017A
:1000400009300931150026FF007508950281020567
:10005000091901290815002501750195088102C0BB
:10006000C005010904A1010901A1008501093009A8
:1000700031150026FF007508950281020509190156
:10008000290815002501750195088102C0C00501E8
:100090000904A1010901A1008502093009311500F7
:1000A00026FF007508950281020509190129081526
:1000B000002501750195088102C0C005010904A150
:1000C000010901A100850109300931150026FF0051
:1000D00075089502810205091901290815002501F5
:1000E000750195088102C0C005010904A10109013B
:1000F000A100850209300931150026FF0075089519
:1001000002810205091901290815002501750195CB
:10011000088102C0C005010904A1010901A10085EF
:100120000309300931150026FF0075089502810288
:100130000509190129081500250175019508810295
:10014000C0C005010904A1010901A100850409300D
:100150000931150026FF007508950281020509196D
:1001600001290815002501750195088102C0C012FA
:10017000010101000000089B2802000301000203A6
:10018000010011241FBECFE5D4E0DEBFCDBF10E0DB
:10019000A0E6B0E0E4ECFDE002C005900D92A03BCB
:1001A000B107D9F711E0A0EBB0E001C01D92AF306C
:1001B000B107E1F7D8D204C623CFE9E6F0E08081A9
:1001C00082608083E89A8BE48093E5008AE58093DF
:1001D000E40008951F93CF93DF939091F50093501F
:1001E00097FDA1C02091F2008091F1008D3209F0BD
:1001F00098C0983009F095C0CCE0D0E0C21BD1097E
:10020000C750DF4F83EC8093D9008AE5809360006C
:100210001092B0008881807629F0CE010E9493036D
:10022000282F76C09A811092E2008981882321F4D8
:100230001092E30022E066C0853019F49093F60036
:1002400060C0863009F049C08B818130D9F182309D
:1002500031F4CE010E946503282F80E03BC083303B
:1002600021F58A81882349F486E290E09093F40096
:100270008093F30080E424E02DC0813049F1823086
:1002800049F482E690E09093F4008093F30080E0DC
:100290002CE120C08330E1F48AE290E09093F400F6
:1002A0008093F30080E42CE015C0813249F483ECA4
:1002B00090E09093F4008093F30080E429E00AC07A
:1002C000823231F4CE010E946503282F80E402C0FF
:1002D00080E420E08093B0001BC0883021F421E04E
:1002E00088EF90E011C0893019F49093F80009C0AC
:1002F0008A3011F421E006C08B3019F48BE480932E
:10030000E50020E082EE90E09093F4008093F3000B
:100310008F81882321F48E81821708F4282F20935F
:1003200061001092F5008091600084FF4AC08091C6
:1003300061008F3F09F445C0182F893008F018E09C
:10034000811B809361008091D90098E88927809370
:10035000D900112341F12091F3003091F4008091F4
:10036000B00086FF0DC0AAEDB0E080E090E0F9019A
:10037000E80FF91FE491ED9301961817C1F708C033
:10038000912FD901EAEDF0E08D9181939150E1F741
:100390001150812F90E01F5F0196820F931F909361
:1003A000F4008093F3008AED90E0612F0E94270211
:1003B000612F6C5F6C3019F08FEF80936100609358
:1003C000600094E189B1857031F49150D9F71092B1
:1003D000F6001092F000DF91CF911F9108951F93C6
:1003E000DC01162F8091E40084FF07C08091E500B6
:1003F00098E889278093E50003C08AE58093E400AC
:10040000912FE6EEF0E08D91819391501916DCF377
:1004100086EE90E0612F0E9427021C5F1093E4009B
:100420001F910895A82FB92F80E090E041E050EA95
:10043000609530E009C02D9182279795879510F03F
:1004400084279527305EC8F36F5FA8F30895EADF2D
:100450008D939D930895CF93CFB7CF93C395489B2A
:10046000E9F7489B09C0489B07C0489B05C0489BCB
:1004700003C0489B01C0A3C0DF93C091F200DD27F9
:10048000C750DF4F489B02C0DF91EBCF2F930F93F4
:100490001F9309B12FEF00FB20F94F933F9319B140
:1004A0004FEF012700FB21F93BE031C04E7F012FC8
:1004B00019B1216028C0102F4D7F2260000009B1C2
:1004C00029C04B7F2460012F000019B12BC019B146
:1004D000477F28602AC04F7E09B120612CC04F7D24
:1004E00019B120622FC04F7B09B1206432C042276E
:1004F00009B149934FEF0000102710FB20F919B103
:100500001570C9F1297F91F2012700FB21F909B18A
:10051000237F89F2315058F1102710FB22F919B1CD
:10052000277E79F2012700FB23F92F7C81F209B1A4
:10053000102710FB24F92F7971F200C019B101279F
:1005400000FB25F92F7359F200C009B1102710FBE9
:1005500026F9223040F200C019B1012700FB27F92B
:10056000243028F64F77206819B10000F9CF11E048
:100570001CBB002719C03B503195C31BD04011E074
:100580001CBB0881033CF9F00B34E9F02091F0002A
:100590001981110F1213EDCF4A81441F093641F121
:1005A0000D3211F0013E29F70093F7003F914F9172
:1005B0001F910F912F91DF91CCB3C0FD4FCFCF9101
:1005C000CFBFCF9118952091F700222379F3109196
:1005D000F500112369F534306AF13093F50020936A
:1005E000F1001091F2003BE0311B3093F20022C089
:1005F0000091F5000130E4F40AE54F7049F43091C0
:10060000600034FD19C000936000C9EDD0E018C04F
:100610003091E40034FD10C00093E400C5EED0E05A
:100620000FC02795A8F45150A9F4220F0000F9CF6C
:100630004AE503C042ED01C0432FC4E1D0E032E0FF
:100640001AB11560589A1AB90BB120E415E05F93FE
:10065000012756E00BB9279520F4515021F4220FC1
:10066000F9CF012756E000003B5A0BB9D0F227958D
:1006700028F4515029F4220F0000F9CF012756E049
:1006800027950BB920F4515021F4220FF9CF0127FF
:1006900056E0299133230BB921F60A7F1091F60019
:1006A000110FC651D0400BB911F01093F00011E0BA
:1006B0001CBB01601AB11A7F402F4A7F5F9100C0B6
:1006C00000C00BB91AB94BB971CFFC01808180769B
:1006D00041F58181863029F583818230D1F08232E3
:1006E00069F08130F1F48091B5009091B60090935B
:1006F000F4008093F3008091B70008958091B200D8
:100700009091B3009093F4008093F3008091B40033
:1007100008958CE790E09093F4008093F30082E2D8
:10072000089580E00895DC012BEB30E03093F40075
:100730002093F3008C918076803299F411968C91FD
:100740001197813071F41092B800E091B900F091E6
:10075000BA000784F089E02DC90112966C910995C1
:10076000089580E00895DF92EF92FF920F931F9318
:10077000CF93DF9381E084B98EEF85B917B88FEFFF
:1007800088B988EF8BB985E08AB982E08093B000A0
:1007900087E08093B10084EC8093B30080E395E719
:1007A0000197F1F783B190E08670907095958795E9
:1007B000823011F40E9492040E94EB05FC01909398
:1007C000BA008093B9000184F285E02D0995E0918B
:1007D000B900F091BA00838194819093B300809323
:1007E000B20081818093B40087819085009731F0B9
:1007F0009093B6008093B500858108C08FE691E0A4
:100800009093B6008093B5000E94D0068093B70005
:100810008091B400809395008BB18A7F8BB98AB1A7
:1008200085608AB988EC9FEA0197F1F78AB18A7FDF
:100830008AB90E94DD00E091B900F091BA0003840A
:10084000F485E02D0995789492E0D92E81E0E82E88
:10085000F12CA8950E94EA00B99BFBCFD7BAE09192
:10086000B900F091BA000384F485E02D099510E0F9
:10087000C0E0D0E012C00584F685E02D9E012F5F18
:10088000822F0995882341F0C7010C2E02C0880FE2
:10089000991F0A94E2F7182B2196E091B900F09184
:1008A000BA008081992787FD9095C817D9071CF356
:1008B000112379F2C0E0D0E0012F112707FD109538
:1008C00024C0C8010C2E02C0959587950A94E2F7C2
:1008D00080FF1AC08091E40084FF16C0CE018F5FB4
:1008E000682F0784F089E02D8BEB90E00995682F45
:1008F0008BEB90E00E94EF0103C00E94EA00A895F4
:100900008091E40084FFF9CF2196E091B900F09145
:10091000BA008081992787FD9095C817D9070CF0F8
:1009200098CFCFCF1092AF0008958091C700882351
:1009300009F44DC0449A80E38A95F1F7449860E049
:1009400070E020E030E098E1892F8A95F1F7459832
:10095000660F770F339B6160329B7160892F8A9598
:10096000F1F7459A2F5F3F4F2830310569F740E096
:1009700050E020E030E098E1892F8A95F1F7459822
:10098000440F550F339B4160329B5160892F8A95EC
:10099000F1F7459A2F5F3F4F2830310569F780E026
:1009A00090E038E1232F2A95F1F74598232F2A95D7
:1009B000F1F7459A019688309105A1F76093C90037
:1009C0007093CA004093CB005093CC000895449A92
:1009D00080E38A95F1F7449820E030E090E040E031
:1009E00050E060E078E1872F8A95F1F74598990FFC
:1009F000440F550F660F339B9160329B4160319BD2
:100A00005160309B6160872F8A95F1F7459A2F5F7F
:100A10003F4F2830310539F79093C9004093CB0000
:100A20005093CD006093CF0020E030E078E1872F35
:100A30008A95F1F745989695469556956695339B18
:100A40009068329B4068319B5068309B6068872F6C
:100A50008A95F1F7459A2F5F3F4F2830310539F7D6
:100A60008091AF00882321F18091C8009F3F11F44D
:100A7000816001C08E7F8093C8008091C8004F3F85
:100A800011F4826001C08D7F8093C8008091C800FE
:100A90005F3F11F4846001C08B7F8093C800809118
:100AA000C8006F3F11F4886001C0877F8093C80041
:100AB0008091C80080FD90E09093CA0081FD40E0E5
:100AC0004093CC0082FD50E05093CE0083FD60E067
:100AD0006093D00008951F931FB7F8943C9A3D9AF5
:100AE00087B1807F87B988B18F6088B9459A44986B
:100AF0001092C8000E9495048091AF00882321F5D0
:100B00008091CA008F3F29F48091C8008160809352
:100B1000C8008091CC008F3F29F48091C80082608A
:100B20008093C8008091CE008F3F29F48091C80047
:100B300084608093C8008091D0008F3F29F4809119
:100B4000C80088608093C800449A80E38A95F1F7D2
:100B5000449880E090E030E040E058E1252F2A956D
:100B6000F1F74598339905C08331910519F441E0B7
:100B700001C03F5F252F2A95F1F7459A01968831EC
:100B8000910561F7442329F0373119F481E080930E
:100B9000C7008091C700882361F481E080939E00A4
:100BA0008DE290E09093A00080939F0084E390E01A
:100BB0000BC081E080939E0084EB90E09093A000B6
:100BC00080939F008BEB90E09093A2008093A10014
:100BD0001FBF1F9108958EE990E008950F931F9312
:100BE000CF93DF93EC01653010F080E0B2C08091CC
:100BF000C700E62FFF27E7FDF095882359F1DF01B5
:100C000011972097F9F06883FD01E753FF4F80812A
:100C100080FD02C090E801C09FEF81FD90E09983C4
:100C2000FD01E753FF4F808182FD02C090E801C0C3
:100C30009FEF83FD90E09A83FD01E753FF4F808192
:100C4000807F8B83FD01E753FF4F8081AF52BF4F01
:100C50008C937EC08F0101501040209709F46CC026
:100C600068839801220F331FF901E753FF4F8081FA
:100C700080FD02C090E801C09FEF81FD90E0998364
:100C8000F901E753FF4F808182FD02C090E801C067
:100C90009FEF83FD90E09A838091C80090E0002E42
:100CA00002C0959587950A94E2F7D901A753BF4FE3
:100CB00080FF04C08C91807F8B833EC0EC911196A5
:100CC0006C9170E04E2F50E09A0120743070A4E0D7
:100CD00035952795AA95E1F7CA0180729070880F23
:100CE000991F282BEE1FEE27EE1F2E2B4071507000
:100CF000E3E0440F551FEA95E1F7242BCB01817007
:100D00009070880F991F282BCB0182709070880FEC
:100D1000991F880F991F282BCB0184709070880F22
:100D2000991F880F991F282B68707070660F771FA6
:100D3000660F771F262B2B83F801EE0FFF1FDF01B5
:100D4000A753BF4F8D919C91EF52FF4F91838083AA
:100D500084E0DF91CF911F910F9108958150909180
:100D6000C700A82FB0E0992361F020E0FD01EF5209
:100D7000FF4FA753BF4F9C918081981779F021E0D6
:100D80000DC0BD01660F771FCB0187539F4F6F5278
:100D90007F4F42E050E00E94D306282F822F089513
:100DA00082E190E00895FB01DC0104C08D91019087
:100DB000801921F441505040C8F7881B990B0895C1
:040DC000F894FFCFD5
:100DC4005AFF1A035300740068006500660061004E
:100DD4006E00650069007200610073000902220060
:100DE400010100002309040000010300000009219F
:100DF400010100012200000705810308000A012DFA
:100E0400000000000000006B059504AE06EE05012D
:00000001FF
